{
  "_format": "hh-sol-artifact-1",
  "contractName": "SwiftLink",
  "sourceName": "contracts/SwiftLink.sol",
  "abi": [
    {
      "inputs": [],
      "stateMutability": "nonpayable",
      "type": "constructor"
    },
    {
      "inputs": [
        {
          "internalType": "address",
          "name": "owner",
          "type": "address"
        }
      ],
      "name": "OwnableInvalidOwner",
      "type": "error"
    },
    {
      "inputs": [
        {
          "internalType": "address",
          "name": "account",
          "type": "address"
        }
      ],
      "name": "OwnableUnauthorizedAccount",
      "type": "error"
    },
    {
      "inputs": [],
      "name": "ReentrancyGuardReentrantCall",
      "type": "error"
    },
    {
      "anonymous": false,
      "inputs": [
        {
          "indexed": true,
          "internalType": "address",
          "name": "previousOwner",
          "type": "address"
        },
        {
          "indexed": true,
          "internalType": "address",
          "name": "newOwner",
          "type": "address"
        }
      ],
      "name": "OwnershipTransferred",
      "type": "event"
    },
    {
      "anonymous": false,
      "inputs": [
        {
          "indexed": true,
          "internalType": "address",
          "name": "from",
          "type": "address"
        },
        {
          "indexed": true,
          "internalType": "address",
          "name": "to",
          "type": "address"
        },
        {
          "indexed": false,
          "internalType": "uint256",
          "name": "amount",
          "type": "uint256"
        },
        {
          "indexed": false,
          "internalType": "address",
          "name": "token",
          "type": "address"
        }
      ],
      "name": "PaymentReceived",
      "type": "event"
    },
    {
      "anonymous": false,
      "inputs": [
        {
          "indexed": false,
          "internalType": "string",
          "name": "username",
          "type": "string"
        },
        {
          "indexed": false,
          "internalType": "string",
          "name": "reason",
          "type": "string"
        }
      ],
      "name": "ProfileDeactivatedByAdmin",
      "type": "event"
    },
    {
      "anonymous": false,
      "inputs": [
        {
          "indexed": true,
          "internalType": "address",
          "name": "user",
          "type": "address"
        },
        {
          "indexed": false,
          "internalType": "string",
          "name": "username",
          "type": "string"
        },
        {
          "indexed": false,
          "internalType": "string",
          "name": "metadata",
          "type": "string"
        }
      ],
      "name": "ProfileRegistered",
      "type": "event"
    },
    {
      "anonymous": false,
      "inputs": [
        {
          "indexed": true,
          "internalType": "address",
          "name": "user",
          "type": "address"
        },
        {
          "indexed": false,
          "internalType": "string",
          "name": "username",
          "type": "string"
        },
        {
          "indexed": false,
          "internalType": "string",
          "name": "metadata",
          "type": "string"
        },
        {
          "indexed": false,
          "internalType": "bool",
          "name": "isActive",
          "type": "bool"
        }
      ],
      "name": "ProfileUpdated",
      "type": "event"
    },
    {
      "anonymous": false,
      "inputs": [
        {
          "indexed": false,
          "internalType": "string",
          "name": "username",
          "type": "string"
        },
        {
          "indexed": true,
          "internalType": "address",
          "name": "oldWallet",
          "type": "address"
        },
        {
          "indexed": true,
          "internalType": "address",
          "name": "newWallet",
          "type": "address"
        }
      ],
      "name": "UsernameTransferred",
      "type": "event"
    },
    {
      "inputs": [
        {
          "internalType": "address",
          "name": "",
          "type": "address"
        }
      ],
      "name": "addressToUsername",
      "outputs": [
        {
          "internalType": "string",
          "name": "",
          "type": "string"
        }
      ],
      "stateMutability": "view",
      "type": "function"
    },
    {
      "inputs": [
        {
          "internalType": "string",
          "name": "_username",
          "type": "string"
        },
        {
          "internalType": "string",
          "name": "_reason",
          "type": "string"
        }
      ],
      "name": "adminDeactivateProfile",
      "outputs": [],
      "stateMutability": "nonpayable",
      "type": "function"
    },
    {
      "inputs": [
        {
          "internalType": "address",
          "name": "_token",
          "type": "address"
        }
      ],
      "name": "emergencyWithdraw",
      "outputs": [],
      "stateMutability": "nonpayable",
      "type": "function"
    },
    {
      "inputs": [
        {
          "internalType": "string",
          "name": "_username",
          "type": "string"
        }
      ],
      "name": "getProfile",
      "outputs": [
        {
          "components": [
            {
              "internalType": "string",
              "name": "username",
              "type": "string"
            },
            {
              "internalType": "address",
              "name": "wallet",
              "type": "address"
            },
            {
              "internalType": "string",
              "name": "metadata",
              "type": "string"
            },
            {
              "internalType": "bool",
              "name": "isActive",
              "type": "bool"
            },
            {
              "internalType": "uint256",
              "name": "createdAt",
              "type": "uint256"
            }
          ],
          "internalType": "struct SwiftLink.Profile",
          "name": "",
          "type": "tuple"
        }
      ],
      "stateMutability": "view",
      "type": "function"
    },
    {
      "inputs": [],
      "name": "owner",
      "outputs": [
        {
          "internalType": "address",
          "name": "",
          "type": "address"
        }
      ],
      "stateMutability": "view",
      "type": "function"
    },
    {
      "inputs": [
        {
          "internalType": "string",
          "name": "_username",
          "type": "string"
        },
        {
          "internalType": "address",
          "name": "_token",
          "type": "address"
        },
        {
          "internalType": "uint256",
          "name": "_amount",
          "type": "uint256"
        }
      ],
      "name": "payUser",
      "outputs": [],
      "stateMutability": "payable",
      "type": "function"
    },
    {
      "inputs": [
        {
          "internalType": "string",
          "name": "",
          "type": "string"
        }
      ],
      "name": "profiles",
      "outputs": [
        {
          "internalType": "string",
          "name": "username",
          "type": "string"
        },
        {
          "internalType": "address",
          "name": "wallet",
          "type": "address"
        },
        {
          "internalType": "string",
          "name": "metadata",
          "type": "string"
        },
        {
          "internalType": "bool",
          "name": "isActive",
          "type": "bool"
        },
        {
          "internalType": "uint256",
          "name": "createdAt",
          "type": "uint256"
        }
      ],
      "stateMutability": "view",
      "type": "function"
    },
    {
      "inputs": [
        {
          "internalType": "string",
          "name": "_username",
          "type": "string"
        },
        {
          "internalType": "string",
          "name": "_metadata",
          "type": "string"
        }
      ],
      "name": "registerUsername",
      "outputs": [],
      "stateMutability": "nonpayable",
      "type": "function"
    },
    {
      "inputs": [],
      "name": "renounceOwnership",
      "outputs": [],
      "stateMutability": "nonpayable",
      "type": "function"
    },
    {
      "inputs": [
        {
          "internalType": "address",
          "name": "newOwner",
          "type": "address"
        }
      ],
      "name": "transferOwnership",
      "outputs": [],
      "stateMutability": "nonpayable",
      "type": "function"
    },
    {
      "inputs": [
        {
          "internalType": "address",
          "name": "_newWallet",
          "type": "address"
        }
      ],
      "name": "transferUsername",
      "outputs": [],
      "stateMutability": "nonpayable",
      "type": "function"
    },
    {
      "inputs": [
        {
          "internalType": "string",
          "name": "_metadata",
          "type": "string"
        },
        {
          "internalType": "bool",
          "name": "_isActive",
          "type": "bool"
        }
      ],
      "name": "updateProfile",
      "outputs": [],
      "stateMutability": "nonpayable",
      "type": "function"
    }
  ],
  "bytecode": "0x6080604052348015600f57600080fd5b503380603557604051631e4fbdf760e01b81526000600482015260240160405180910390fd5b603c816065565b5060017f9b779b17422d0df92223018b32b4d1fa46e071723d6817e2486d003becc55f005560b5565b600080546001600160a01b038381166001600160a01b0319831681178455604051919092169283917f8be0079c531659141344cd1fd0a4f28419497f9722a3daafe3b4186f6b6457e09190a35050565b611979806100c46000396000f3fe6080604052600436106100a75760003560e01c80638da5cb5b116100645780638da5cb5b14610179578063b62327fe146101a1578063b9ab8033146101c1578063cba521e2146101d4578063e07a0baa14610205578063f2fde38b1461023257600080fd5b80630de98693146100ac57806311b951ac146100e2578063344b15fb146101045780634520748d146101245780636ff1c9bc14610144578063715018a614610164575b600080fd5b3480156100b857600080fd5b506100cc6100c736600461148b565b610252565b6040516100d99190611518565b60405180910390f35b3480156100ee57600080fd5b506101026100fd36600461158a565b610413565b005b34801561011057600080fd5b5061010261011f36600461160f565b610506565b34801561013057600080fd5b5061010261013f36600461163f565b610757565b34801561015057600080fd5b5061010261015f36600461160f565b6108d9565b34801561017057600080fd5b50610102610a72565b34801561018557600080fd5b506000546040516001600160a01b0390911681526020016100d9565b3480156101ad57600080fd5b506101026101bc36600461158a565b610a86565b6101026101cf366004611691565b610d1a565b3480156101e057600080fd5b506101f46101ef36600461148b565b61107a565b6040516100d99594939291906116e8565b34801561021157600080fd5b5061022561022036600461160f565b6111d6565b6040516100d99190611731565b34801561023e57600080fd5b5061010261024d36600461160f565b611270565b61028f6040518060a001604052806060815260200160006001600160a01b0316815260200160608152602001600015158152602001600081525090565b60018260405161029f9190611744565b90815260200160405180910390206040518060a00160405290816000820180546102c890611760565b80601f01602080910402602001604051908101604052809291908181526020018280546102f490611760565b80156103415780601f1061031657610100808354040283529160200191610341565b820191906000526020600020905b81548152906001019060200180831161032457829003601f168201915b505050918352505060018201546001600160a01b0316602082015260028201805460409092019161037190611760565b80601f016020809104026020016040519081016040528092919081815260200182805461039d90611760565b80156103ea5780601f106103bf576101008083540402835291602001916103ea565b820191906000526020600020905b8154815290600101906020018083116103cd57829003601f168201915b5050509183525050600382015460ff161515602082015260049091015460409091015292915050565b61041b6112ab565b60006001600160a01b03166001836040516104369190611744565b908152604051908190036020019020600101546001600160a01b0316036104955760405162461bcd60e51b815260206004820152600e60248201526d155cd95c881b9bdd08199bdd5b9960921b60448201526064015b60405180910390fd5b60006001836040516104a79190611744565b908152604051908190036020018120600301805492151560ff19909316929092179091557f579b9ca1ccb56c465f2e1135296887f0b5551df781f08e0b5c35fae6a7f494c3906104fa908490849061179a565b60405180910390a15050565b6001600160a01b03811661054e5760405162461bcd60e51b815260206004820152600f60248201526e496e76616c6964206164647265737360881b604482015260640161048c565b6001600160a01b0381166000908152600260205260409020805461057190611760565b1590506105c05760405162461bcd60e51b815260206004820181905260248201527f526563697069656e7420616c726561647920686173206120757365726e616d65604482015260640161048c565b33600090815260026020526040812080546105da90611760565b80601f016020809104026020016040519081016040528092919081815260200182805461060690611760565b80156106535780601f1061062857610100808354040283529160200191610653565b820191906000526020600020905b81548152906001019060200180831161063657829003601f168201915b50505050509050600081511161069e5760405162461bcd60e51b815260206004820152601060248201526f139bc81c1c9bd99a5b1948199bdd5b9960821b604482015260640161048c565b6001600160a01b03821660009081526002602052604090206106c08282611816565b503360009081526002602052604081206106d991611398565b816001826040516106ea9190611744565b90815260405190819003602001812060010180546001600160a01b039384166001600160a01b03199091161790559083169033907f7b707c340dcff159369a8f5fe3b699aa65ef873170ca726139b9c9626d4f1cba9061074b908590611731565b60405180910390a35050565b336000908152600260205260408120805461077190611760565b80601f016020809104026020016040519081016040528092919081815260200182805461079d90611760565b80156107ea5780601f106107bf576101008083540402835291602001916107ea565b820191906000526020600020905b8154815290600101906020018083116107cd57829003601f168201915b5050505050905060008151116108355760405162461bcd60e51b815260206004820152601060248201526f139bc81c1c9bd99a5b1948199bdd5b9960821b604482015260640161048c565b826001826040516108469190611744565b908152602001604051809103902060020190816108639190611816565b50816001826040516108759190611744565b908152604051908190036020018120600301805492151560ff199093169290921790915533907f1d3c3afb7592e613188ca5cd2ef5846513b88e1949cbda5b488a221e3ed43365906108cc908490879087906118d5565b60405180910390a2505050565b6108e16112ab565b6001600160a01b03811661092d57600080546040516001600160a01b03909116914780156108fc02929091818181858888f19350505050158015610929573d6000803e3d6000fd5b5050565b6040516370a0823160e01b815230600482015281906000906001600160a01b038316906370a0823190602401602060405180830381865afa158015610976573d6000803e3d6000fd5b505050506040513d601f19601f8201168201806040525081019061099a919061190d565b9050816001600160a01b031663a9059cbb6109bd6000546001600160a01b031690565b6040516001600160e01b031960e084901b1681526001600160a01b039091166004820152602481018490526044016020604051808303816000875af1158015610a0a573d6000803e3d6000fd5b505050506040513d601f19601f82011682018060405250810190610a2e9190611926565b610a6c5760405162461bcd60e51b815260206004820152600f60248201526e151c985b9cd9995c8819985a5b1959608a1b604482015260640161048c565b50505b50565b610a7a6112ab565b610a8460006112d8565b565b600382511015610acd5760405162461bcd60e51b8152602060048201526012602482015271155cd95c9b985b59481d1bdbc81cda1bdc9d60721b604482015260640161048c565b601482511115610b135760405162461bcd60e51b8152602060048201526011602482015270557365726e616d6520746f6f206c6f6e6760781b604482015260640161048c565b60006001600160a01b0316600183604051610b2e9190611744565b908152604051908190036020019020600101546001600160a01b031614610b905760405162461bcd60e51b81526020600482015260166024820152752ab9b2b93730b6b29030b63932b0b23c903a30b5b2b760511b604482015260640161048c565b3360009081526002602052604090208054610baa90611760565b159050610bf95760405162461bcd60e51b815260206004820152601e60248201527f4164647265737320616c726561647920686173206120757365726e616d650000604482015260640161048c565b6040518060a00160405280838152602001336001600160a01b0316815260200182815260200160011515815260200142815250600183604051610c3c9190611744565b90815260405190819003602001902081518190610c599082611816565b5060208201516001820180546001600160a01b0319166001600160a01b0390921691909117905560408201516002820190610c949082611816565b50606082015160038201805460ff1916911515919091179055608090910151600490910155336000908152600260205260409020610cd28382611816565b50336001600160a01b03167ff38f9fff349de801f5f4d77082d8b194654441937b02b828d767ec613f2b4d4b8383604051610d0e92919061179a565b60405180910390a25050565b610d22611328565b6000600184604051610d349190611744565b908152604051908190036020019020600101546001600160a01b0316905080610d905760405162461bcd60e51b815260206004820152600e60248201526d155cd95c881b9bdd08199bdd5b9960921b604482015260640161048c565b600184604051610da09190611744565b9081526040519081900360200190206003015460ff16610e025760405162461bcd60e51b815260206004820152601860248201527f557365722070726f66696c6520697320696e6163746976650000000000000000604482015260640161048c565b60008211610e525760405162461bcd60e51b815260206004820152601d60248201527f416d6f756e74206d7573742062652067726561746572207468616e2030000000604482015260640161048c565b6001600160a01b038316610f4757813414610ea75760405162461bcd60e51b8152602060048201526015602482015274125b98dbdc9c9958dd0810d15313c8185b5bdd5b9d605a1b604482015260640161048c565b6000816001600160a01b03168360405160006040518083038185875af1925050503d8060008114610ef4576040519150601f19603f3d011682016040523d82523d6000602084013e610ef9565b606091505b5050905080610f415760405162461bcd60e51b815260206004820152601460248201527310d15313c81d1c985b9cd9995c8819985a5b195960621b604482015260640161048c565b50611009565b6040516323b872dd60e01b81523360048201526001600160a01b038281166024830152604482018490528491908216906323b872dd906064016020604051808303816000875af1158015610f9f573d6000803e3d6000fd5b505050506040513d601f19601f82011682018060405250810190610fc39190611926565b6110075760405162461bcd60e51b8152602060048201526015602482015274151bdad95b881d1c985b9cd9995c8819985a5b1959605a1b604482015260640161048c565b505b604080518381526001600160a01b03858116602083015283169133917f31ebbeddb2197e5a44b7ffe0cf54fc1b9bd148444abdc36310e34e36a04ea2e0910160405180910390a350610a6c60017f9b779b17422d0df92223018b32b4d1fa46e071723d6817e2486d003becc55f0055565b80516020818301810180516001825292820191909301209152805481906110a090611760565b80601f01602080910402602001604051908101604052809291908181526020018280546110cc90611760565b80156111195780601f106110ee57610100808354040283529160200191611119565b820191906000526020600020905b8154815290600101906020018083116110fc57829003601f168201915b505050600184015460028501805494956001600160a01b0390921694919350915061114390611760565b80601f016020809104026020016040519081016040528092919081815260200182805461116f90611760565b80156111bc5780601f10611191576101008083540402835291602001916111bc565b820191906000526020600020905b81548152906001019060200180831161119f57829003601f168201915b505050506003830154600490930154919260ff1691905085565b600260205260009081526040902080546111ef90611760565b80601f016020809104026020016040519081016040528092919081815260200182805461121b90611760565b80156112685780601f1061123d57610100808354040283529160200191611268565b820191906000526020600020905b81548152906001019060200180831161124b57829003601f168201915b505050505081565b6112786112ab565b6001600160a01b0381166112a257604051631e4fbdf760e01b81526000600482015260240161048c565b610a6f816112d8565b6000546001600160a01b03163314610a845760405163118cdaa760e01b815233600482015260240161048c565b600080546001600160a01b038381166001600160a01b0319831681178455604051919092169283917f8be0079c531659141344cd1fd0a4f28419497f9722a3daafe3b4186f6b6457e09190a35050565b611330611356565b60027f9b779b17422d0df92223018b32b4d1fa46e071723d6817e2486d003becc55f0055565b7f9b779b17422d0df92223018b32b4d1fa46e071723d6817e2486d003becc55f0054600203610a8457604051633ee5aeb560e01b815260040160405180910390fd5b5080546113a490611760565b6000825580601f106113b4575050565b601f016020900490600052602060002090810190610a6f91905b808211156113e257600081556001016113ce565b5090565b634e487b7160e01b600052604160045260246000fd5b600082601f83011261140d57600080fd5b813567ffffffffffffffff811115611427576114276113e6565b604051601f8201601f19908116603f0116810167ffffffffffffffff81118282101715611456576114566113e6565b60405281815283820160200185101561146e57600080fd5b816020850160208301376000918101602001919091529392505050565b60006020828403121561149d57600080fd5b813567ffffffffffffffff8111156114b457600080fd5b6114c0848285016113fc565b949350505050565b60005b838110156114e35781810151838201526020016114cb565b50506000910152565b600081518084526115048160208601602086016114c8565b601f01601f19169290920160200192915050565b602081526000825160a0602084015261153460c08401826114ec565b60208501516001600160a01b0316604085810191909152850151848203601f1901606086015290915061156782826114ec565b915050606084015115156080840152608084015160a08401528091505092915050565b6000806040838503121561159d57600080fd5b823567ffffffffffffffff8111156115b457600080fd5b6115c0858286016113fc565b925050602083013567ffffffffffffffff8111156115dd57600080fd5b6115e9858286016113fc565b9150509250929050565b80356001600160a01b038116811461160a57600080fd5b919050565b60006020828403121561162157600080fd5b61162a826115f3565b9392505050565b8015158114610a6f57600080fd5b6000806040838503121561165257600080fd5b823567ffffffffffffffff81111561166957600080fd5b611675858286016113fc565b925050602083013561168681611631565b809150509250929050565b6000806000606084860312156116a657600080fd5b833567ffffffffffffffff8111156116bd57600080fd5b6116c9868287016113fc565b9350506116d8602085016115f3565b9150604084013590509250925092565b60a0815260006116fb60a08301886114ec565b6001600160a01b0387166020840152828103604084015261171c81876114ec565b94151560608401525050608001529392505050565b60208152600061162a60208301846114ec565b600082516117568184602087016114c8565b9190910192915050565b600181811c9082168061177457607f821691505b60208210810361179457634e487b7160e01b600052602260045260246000fd5b50919050565b6040815260006117ad60408301856114ec565b82810360208401526117bf81856114ec565b95945050505050565b601f821115610a6c57806000526020600020601f840160051c810160208510156117ef5750805b601f840160051c820191505b8181101561180f57600081556001016117fb565b5050505050565b815167ffffffffffffffff811115611830576118306113e6565b6118448161183e8454611760565b846117c8565b6020601f82116001811461187857600083156118605750848201515b600019600385901b1c1916600184901b17845561180f565b600084815260208120601f198516915b828110156118a85787850151825560209485019460019092019101611888565b50848210156118c65786840151600019600387901b60f8161c191681555b50505050600190811b01905550565b6060815260006118e860608301866114ec565b82810360208401526118fa81866114ec565b9150508215156040830152949350505050565b60006020828403121561191f57600080fd5b5051919050565b60006020828403121561193857600080fd5b815161162a8161163156fea26469706673582212200f547b3b6db0def5801bf39aeb5f4851f127239f79c0fd70a8cd06125c34a63064736f6c634300081c0033",
  "linkReferences": {},
  "deployedLinkReferences": {}
}